S02200004D6F64756C5F436874656E69615F4B6172745F446F73747570612E73726563B6
S11300000C9434000C94A4010C943F010C94510002
S11300100C9451000C9451000C9451000C94510018
S11300200C9451000C9451000C9451000C94510008
S11300300C9451000C9451000C9406020C94510041
S11300400C944A020C9451000C9451000C945100ED
S11300500C9451000C9451000C9451000C945100D8
S11300600C9451000C94510011241FBECFEFD4E026
S1130070DEBFCDBF11E0A0E0B1E0E6E2F5E002C0F2
S113008005900D92A430B107D9F721E0A4E0B1E0C6
S113009001C01D92A931B207E1F70E9461000C94DE
S11300A091020C940000F894F999FECF92BD81BDA1
S11300B0F89A789480B50895389A0895409A4098AB
S11300C008950E949F000E945C000E945E0087E6E3
S11300D090E00E948D000E943B0178940E949F0052
S11300E080910F0180FF09C00E94B0000E94CB00E4
S11300F080910F018E7F80930F010E94AF000E94B8
S11301008200ECCF83B7817F83BF83B7816083BFD5
S1130110889583B78E7F83BF08959093C50080939D
S1130120C40088E18093C10086E08093C2000895F2
S11301309091C00095FFFCCF8093C600089598E28B
S113014088E10FB6F894A895809360000FBE909351
S11301506000E0E6F0E08081806480830895089583
S11301608091100190911101A0911201B09113019D
S1130170B695A7959795879580931501909314014B
S1130180A093160110921001109211011092120105
S1130190109213010895809116010E949800809195
S11301A014010E949800809115010C9498001092FB
S11301B00E0110920D011092090110920A01109281
S11301C00B0110920C011092080110921701109269
S11301D0180180910401909105010E9453008093BD
S11301E0070180910001909101010E9453008093C6
S11301F00601809107010E949800809106010E94E7
S11302009800E9E6F0E080818A6080838CB38360A3
S11302108CBB8DB383608DBB0895409AE898E998B0
S11302208CB383608CBB16BCA99A8091070187BDEF
S1130230EEE6F0E0808182608083A89A808181600C
S113024080830895409AE898E9988CB383608CBBC6
S113025016BCA99A8091060187BDEEE6F0E0808184
S113026082608083A89A808181608083089585B5A7
S1130270846085BD08950E94D7000C9437011F92B5
S11302800F920FB60F9211242F933F934F935F93C6
S11302906F937F938F939F93AF93BF93EF93FF934A
S11302A080910D01811126C0809169008C6080933A
S11302B0690081E080930D01809317011092180169
S11302C08091090190910A01A0910B01B0910C0158
S11302D0880F991FAA1FBB1F0196A11DB11D8093F2
S11302E0090190930A01A0930B01B0930C010E94A1
S11302F00D0119C08130B9F4809169008B7F80931E
S1130300690010920D01109217011092180180914A
S113031008018F5F8093080190910201891708F406
S113032016BC0E942201FF91EF91BF91AF919F9162
S11303308F917F916F915F914F913F912F910F908A
S11303400FBE0F901F9018951F920F920FB60F9229
S113035011242F933F934F935F936F937F938F93C6
S11303609F93AF93BF93EF93FF9380910E018111FD
S113037023C08091690083608093690081E0809349
S11303800E01809318011092170180910901909138
S11303900A01A0910B01B0910C01880F991FAA1FAB
S11303A0BB1F8093090190930A01A0930B01B093A2
S11303B00C010E940D0119C08130B9F480916900CB
S11303C08E7F8093690010920E0110921701109293
S11303D01801809108018F5F8093080190910201B8
S11303E0891708F416BC0E942201FF91EF91BF9176
S11303F0AF919F918F917F916F915F914F913F91B9
S11304002F910F900FBE0F901F9018951F920F926F
S11304100FB60F9211242F933F938F939F93309194
S113042018012091170191E0211190E0313059F425
S1130430992349F080910E01813019F58CB38360C2
S11304408CBBE89A18C081E0311180E0213051F46E
S1130450882341F080910D01813099F48CB383603D
S11304608CBB08C0992369F0882359F08CB383604E
S11304708CBBE89AE99A80916E008D7F80936E0020
S113048040989F918F913F912F910F900FBE0F90A5
S11304901F9018951F920F920FB60F9211248F93ED
S11304A09F93AF93BF9390910801809102011092A2
S11304B0080198131EC08091090190910A01A0912E
S11304C00B01B0910C018093100190931101A09342
S11304D01201B09313011092090110920A011092B3
S11304E00B0110920C0180910F01816080930F0128
S11304F008C01092090110920A0110920B01109287
S11305000C01409A409880916E008E7F80936E001B
S1130510BF91AF919F918F910F900FBE0F901F903D
S10905201895F894FFCFCA
S107052601001A00B2
S9030000FC
