S02200004D6F64756C5F436874656E69615F4B6172745F446F73747570612E73726563B6
S11300000C9434000C94CE010C9469010C945100AE
S11300100C9451000C9451000C9451000C94510018
S11300200C9451000C9451000C9451000C94510008
S11300300C9451000C9451000C9430020C94510017
S11300400C9498020C9451000C9451000C9451009F
S11300500C9451000C9451000C9451000C945100D8
S11300600C9451000C94510011241FBECFEFD4E026
S1130070DEBFCDBF11E0A0E0B1E0E6EDF5E002C0E7
S113008005900D92A230B107D9F721E0A2E0B1E0CA
S113009001C01D92A531B207E1F70E9473000C94D0
S11300A0E9020C94000080E090E00E945D00089555
S11300B081E090E00E945D000895F894F999FECFE4
S11300C092BD81BD8FB381608FBB789480B5089554
S11300D087B1816087B9089588B1816088B988B192
S11300E08E7F88B908950E9468000E946C0087E69C
S11300F090E00E949D000E94640178940E94AF00E9
S113010080910B0180FF09C00E94CC000E94E7008F
S113011080910B018E7F80930B010E94BF000E948F
S11301209200ECCF83B7817F83BF83B7816083BFA5
S1130130889583B78E7F83BF08959093C50080937D
S1130140C40088E18093C10086E08093C2000895D2
S11301509091C00095FFFCCF8093C600089598E26B
S113016088E10FB6F894A895809360000FBE909331
S11301706000E0E6F0E08081806480830895A895C3
S11301800FB6F894A8958091600088618093600010
S1130190109260000FBE089580910C0190910D01A2
S11301A0A0910E01B0910F01B695A79597958795EB
S11301B08093110190931001A093120110920C01ED
S11301C010920D0110920E0110920F01089580916A
S11301D012010E94A800809110010E94A800809141
S11301E011010E94A800089510920A0110920901B9
S11301F01092050110920601109207011092080155
S11302001092040110921301109214010E945300E1
S1130210809303010E94580080930201809103019E
S11302200E94A800809102010E94A800E9E6F0E083
S113023080818A6080838CB383608CBB8DB3836040
S11302408DBB089588B1816088B98DB38E7F8DBBD5
S11302508DB38D7F8DBB8CB383608CBB16BC85B393
S1130260826085BB8091030187BDEEE6F0E080816A
S11302708260808385B3816085BB80818160808357
S1130280089588B1816088B98DB38E7F8DBB8DB39D
S11302908D7F8DBB8CB383608CBB16BC85B38260B1
S11302A085BB8091020187BDEEE6F0E0808182602B
S11302B0808385B3816085BB80818160808308955C
S11302C085B5846085BD08950E94F4000E94600194
S11302D008951F920F920FB60F9211242F933F93FC
S11302E04F935F936F937F938F939F93AF93BF933A
S11302F0EF93FF9380910901811126C0E9E6F0E0B4
S113030080818C60808381E0809309018093130154
S1130310109214018091050190910601A0910701AA
S1130320B0910801880F991FAA1FBB1F0196A11D38
S1130330B11D8093050190930601A0930701B0932A
S113034008010E94220119C08130B9F4E9E6F0E005
S113035080818B7F80831092090110921301109287
S11303601401809104018F5F809304019091000136
S1130370891708F416BC0E944101FF91EF91BF91C7
S1130380AF919F918F917F916F915F914F913F9129
S11303902F910F900FBE0F901F9018951F920F92E0
S11303A00FB60F9211242F933F934F935F936F9344
S11303B07F938F939F93AF93BF93EF93FF9380911A
S11303C00A01811123C0E9E6F0E080818360808323
S11303D081E080930A0180931401109213018091AB
S11303E0050190910601A0910701B0910801880FC1
S11303F0991FAA1FBB1F8093050190930601A09328
S11304000701B09308010E94220119C08130B9F498
S1130410E9E6F0E080818E7F808310920A011092D9
S1130420130110921401809104018F5F80930401E1
S113043090910001891708F416BC0E944101FF91B4
S1130440EF91BF91AF919F918F917F916F915F9148
S11304504F913F912F910F900FBE0F901F901895C1
S11304601F920F920FB60F9211242F933F934F9325
S11304708F939F93EF93FF93309114012091130175
S113048091E0211190E081E0313009F080E089238E
S1130490A1F080910A01813009F03EC08CB38360E1
S11304A08CBB8DB381608DBBEEE6F0E080818D7FE7
S11304B0808388B18E7F88B92FC041E0311140E03C
S11304C081E0213009F080E0842399F080910901D2
S11304D0813011F58CB383608CBB8DB382608DBB8E
S11304E0EEE6F0E080818D7F808388B18E7F88B9CD
S11304F013C0942389F08CB383608CBB8DB381606B
S11305008DBB8DB382608DBBEEE6F0E080818D7F84
S1130510808388B18E7F88B9FF91EF919F918F91ED
S11305204F913F912F910F900FBE0F901F901895F0
S11305301F920F920FB60F9211248F939F93AF9334
S1130540BF93EF93FF93909104018091000198135E
S113055020C0109204018091050190910601A091A0
S11305600701B091080180930C0190930D01A093B1
S11305700E01B0930F011092050110920601109222
S113058007011092080180910B01816080930B0197
S11305900AC01092040110920501109206011092F3
S11305A007011092080188B1816088B988B18E7FF3
S11305B088B9EEE6F0E080818E7F8083FF91EF9131
S11305C0BF91AF919F918F910F900FBE0F901F908D
S10905D01895F894FFCF1A
S10505D61A0005
S9030000FC
